{
  "_format": "hh-sol-artifact-1",
  "contractName": "SocialPetExtended",
  "sourceName": "contracts/SocialPetExtended.sol",
  "abi": [
    {
      "inputs": [],
      "stateMutability": "nonpayable",
      "type": "constructor"
    },
    {
      "inputs": [
        {
          "internalType": "address",
          "name": "sender",
          "type": "address"
        },
        {
          "internalType": "uint256",
          "name": "tokenId",
          "type": "uint256"
        },
        {
          "internalType": "address",
          "name": "owner",
          "type": "address"
        }
      ],
      "name": "ERC721IncorrectOwner",
      "type": "error"
    },
    {
      "inputs": [
        {
          "internalType": "address",
          "name": "operator",
          "type": "address"
        },
        {
          "internalType": "uint256",
          "name": "tokenId",
          "type": "uint256"
        }
      ],
      "name": "ERC721InsufficientApproval",
      "type": "error"
    },
    {
      "inputs": [
        {
          "internalType": "address",
          "name": "approver",
          "type": "address"
        }
      ],
      "name": "ERC721InvalidApprover",
      "type": "error"
    },
    {
      "inputs": [
        {
          "internalType": "address",
          "name": "operator",
          "type": "address"
        }
      ],
      "name": "ERC721InvalidOperator",
      "type": "error"
    },
    {
      "inputs": [
        {
          "internalType": "address",
          "name": "owner",
          "type": "address"
        }
      ],
      "name": "ERC721InvalidOwner",
      "type": "error"
    },
    {
      "inputs": [
        {
          "internalType": "address",
          "name": "receiver",
          "type": "address"
        }
      ],
      "name": "ERC721InvalidReceiver",
      "type": "error"
    },
    {
      "inputs": [
        {
          "internalType": "address",
          "name": "sender",
          "type": "address"
        }
      ],
      "name": "ERC721InvalidSender",
      "type": "error"
    },
    {
      "inputs": [
        {
          "internalType": "uint256",
          "name": "tokenId",
          "type": "uint256"
        }
      ],
      "name": "ERC721NonexistentToken",
      "type": "error"
    },
    {
      "anonymous": false,
      "inputs": [
        {
          "indexed": true,
          "internalType": "address",
          "name": "owner",
          "type": "address"
        },
        {
          "indexed": true,
          "internalType": "address",
          "name": "approved",
          "type": "address"
        },
        {
          "indexed": true,
          "internalType": "uint256",
          "name": "tokenId",
          "type": "uint256"
        }
      ],
      "name": "Approval",
      "type": "event"
    },
    {
      "anonymous": false,
      "inputs": [
        {
          "indexed": true,
          "internalType": "address",
          "name": "owner",
          "type": "address"
        },
        {
          "indexed": true,
          "internalType": "address",
          "name": "operator",
          "type": "address"
        },
        {
          "indexed": false,
          "internalType": "bool",
          "name": "approved",
          "type": "bool"
        }
      ],
      "name": "ApprovalForAll",
      "type": "event"
    },
    {
      "anonymous": false,
      "inputs": [
        {
          "indexed": false,
          "internalType": "uint256",
          "name": "_fromTokenId",
          "type": "uint256"
        },
        {
          "indexed": false,
          "internalType": "uint256",
          "name": "_toTokenId",
          "type": "uint256"
        }
      ],
      "name": "BatchMetadataUpdate",
      "type": "event"
    },
    {
      "anonymous": false,
      "inputs": [
        {
          "indexed": false,
          "internalType": "uint256",
          "name": "_tokenId",
          "type": "uint256"
        }
      ],
      "name": "MetadataUpdate",
      "type": "event"
    },
    {
      "anonymous": false,
      "inputs": [
        {
          "indexed": true,
          "internalType": "address",
          "name": "from",
          "type": "address"
        },
        {
          "indexed": true,
          "internalType": "address",
          "name": "to",
          "type": "address"
        },
        {
          "indexed": true,
          "internalType": "uint256",
          "name": "tokenId",
          "type": "uint256"
        }
      ],
      "name": "Transfer",
      "type": "event"
    },
    {
      "anonymous": false,
      "inputs": [
        {
          "indexed": false,
          "internalType": "uint256",
          "name": "",
          "type": "uint256"
        }
      ],
      "name": "minted",
      "type": "event"
    },
    {
      "inputs": [
        {
          "internalType": "uint256",
          "name": "",
          "type": "uint256"
        }
      ],
      "name": "accountAddress",
      "outputs": [
        {
          "internalType": "address",
          "name": "",
          "type": "address"
        }
      ],
      "stateMutability": "view",
      "type": "function"
    },
    {
      "inputs": [
        {
          "internalType": "address",
          "name": "to",
          "type": "address"
        },
        {
          "internalType": "uint256",
          "name": "tokenId",
          "type": "uint256"
        }
      ],
      "name": "approve",
      "outputs": [],
      "stateMutability": "nonpayable",
      "type": "function"
    },
    {
      "inputs": [
        {
          "internalType": "address",
          "name": "owner",
          "type": "address"
        }
      ],
      "name": "balanceOf",
      "outputs": [
        {
          "internalType": "uint256",
          "name": "",
          "type": "uint256"
        }
      ],
      "stateMutability": "view",
      "type": "function"
    },
    {
      "inputs": [],
      "name": "cost",
      "outputs": [
        {
          "internalType": "uint256",
          "name": "",
          "type": "uint256"
        }
      ],
      "stateMutability": "view",
      "type": "function"
    },
    {
      "inputs": [],
      "name": "foundAddress",
      "outputs": [
        {
          "internalType": "address",
          "name": "",
          "type": "address"
        }
      ],
      "stateMutability": "view",
      "type": "function"
    },
    {
      "inputs": [
        {
          "internalType": "uint256",
          "name": "tokenId",
          "type": "uint256"
        }
      ],
      "name": "getApproved",
      "outputs": [
        {
          "internalType": "address",
          "name": "",
          "type": "address"
        }
      ],
      "stateMutability": "view",
      "type": "function"
    },
    {
      "inputs": [],
      "name": "getNextId",
      "outputs": [
        {
          "internalType": "uint256",
          "name": "",
          "type": "uint256"
        }
      ],
      "stateMutability": "view",
      "type": "function"
    },
    {
      "inputs": [
        {
          "internalType": "address",
          "name": "owner",
          "type": "address"
        },
        {
          "internalType": "address",
          "name": "operator",
          "type": "address"
        }
      ],
      "name": "isApprovedForAll",
      "outputs": [
        {
          "internalType": "bool",
          "name": "",
          "type": "bool"
        }
      ],
      "stateMutability": "view",
      "type": "function"
    },
    {
      "inputs": [
        {
          "internalType": "address",
          "name": "to",
          "type": "address"
        },
        {
          "internalType": "string",
          "name": "tokenURI",
          "type": "string"
        }
      ],
      "name": "mint",
      "outputs": [],
      "stateMutability": "payable",
      "type": "function"
    },
    {
      "inputs": [],
      "name": "name",
      "outputs": [
        {
          "internalType": "string",
          "name": "",
          "type": "string"
        }
      ],
      "stateMutability": "view",
      "type": "function"
    },
    {
      "inputs": [],
      "name": "owner",
      "outputs": [
        {
          "internalType": "address",
          "name": "",
          "type": "address"
        }
      ],
      "stateMutability": "view",
      "type": "function"
    },
    {
      "inputs": [
        {
          "internalType": "uint256",
          "name": "tokenId",
          "type": "uint256"
        }
      ],
      "name": "ownerOf",
      "outputs": [
        {
          "internalType": "address",
          "name": "",
          "type": "address"
        }
      ],
      "stateMutability": "view",
      "type": "function"
    },
    {
      "inputs": [],
      "name": "projectAddress",
      "outputs": [
        {
          "internalType": "address",
          "name": "",
          "type": "address"
        }
      ],
      "stateMutability": "view",
      "type": "function"
    },
    {
      "inputs": [
        {
          "internalType": "address",
          "name": "from",
          "type": "address"
        },
        {
          "internalType": "address",
          "name": "to",
          "type": "address"
        },
        {
          "internalType": "uint256",
          "name": "tokenId",
          "type": "uint256"
        }
      ],
      "name": "safeTransferFrom",
      "outputs": [],
      "stateMutability": "nonpayable",
      "type": "function"
    },
    {
      "inputs": [
        {
          "internalType": "address",
          "name": "from",
          "type": "address"
        },
        {
          "internalType": "address",
          "name": "to",
          "type": "address"
        },
        {
          "internalType": "uint256",
          "name": "tokenId",
          "type": "uint256"
        },
        {
          "internalType": "bytes",
          "name": "data",
          "type": "bytes"
        }
      ],
      "name": "safeTransferFrom",
      "outputs": [],
      "stateMutability": "nonpayable",
      "type": "function"
    },
    {
      "inputs": [
        {
          "internalType": "address",
          "name": "operator",
          "type": "address"
        },
        {
          "internalType": "bool",
          "name": "approved",
          "type": "bool"
        }
      ],
      "name": "setApprovalForAll",
      "outputs": [],
      "stateMutability": "nonpayable",
      "type": "function"
    },
    {
      "inputs": [
        {
          "internalType": "uint256",
          "name": "newCost",
          "type": "uint256"
        }
      ],
      "name": "setCost",
      "outputs": [
        {
          "internalType": "bool",
          "name": "",
          "type": "bool"
        }
      ],
      "stateMutability": "nonpayable",
      "type": "function"
    },
    {
      "inputs": [
        {
          "internalType": "address",
          "name": "newFoundAddress",
          "type": "address"
        }
      ],
      "name": "setFoundAddress",
      "outputs": [
        {
          "internalType": "bool",
          "name": "",
          "type": "bool"
        }
      ],
      "stateMutability": "nonpayable",
      "type": "function"
    },
    {
      "inputs": [
        {
          "internalType": "address",
          "name": "newOwner",
          "type": "address"
        }
      ],
      "name": "setOwner",
      "outputs": [
        {
          "internalType": "bool",
          "name": "",
          "type": "bool"
        }
      ],
      "stateMutability": "nonpayable",
      "type": "function"
    },
    {
      "inputs": [
        {
          "internalType": "address",
          "name": "newProjectAddress",
          "type": "address"
        }
      ],
      "name": "setProjectAddress",
      "outputs": [
        {
          "internalType": "bool",
          "name": "",
          "type": "bool"
        }
      ],
      "stateMutability": "nonpayable",
      "type": "function"
    },
    {
      "inputs": [
        {
          "internalType": "bytes4",
          "name": "interfaceId",
          "type": "bytes4"
        }
      ],
      "name": "supportsInterface",
      "outputs": [
        {
          "internalType": "bool",
          "name": "",
          "type": "bool"
        }
      ],
      "stateMutability": "view",
      "type": "function"
    },
    {
      "inputs": [],
      "name": "symbol",
      "outputs": [
        {
          "internalType": "string",
          "name": "",
          "type": "string"
        }
      ],
      "stateMutability": "view",
      "type": "function"
    },
    {
      "inputs": [
        {
          "internalType": "uint256",
          "name": "tokenId",
          "type": "uint256"
        }
      ],
      "name": "tokenURI",
      "outputs": [
        {
          "internalType": "string",
          "name": "",
          "type": "string"
        }
      ],
      "stateMutability": "view",
      "type": "function"
    },
    {
      "inputs": [
        {
          "internalType": "address",
          "name": "account",
          "type": "address"
        }
      ],
      "name": "tokensOfOwner",
      "outputs": [
        {
          "internalType": "uint256[]",
          "name": "",
          "type": "uint256[]"
        }
      ],
      "stateMutability": "view",
      "type": "function"
    },
    {
      "inputs": [
        {
          "internalType": "address",
          "name": "from",
          "type": "address"
        },
        {
          "internalType": "address",
          "name": "to",
          "type": "address"
        },
        {
          "internalType": "uint256",
          "name": "tokenId",
          "type": "uint256"
        }
      ],
      "name": "transferFrom",
      "outputs": [],
      "stateMutability": "nonpayable",
      "type": "function"
    }
  ],
  "bytecode": "0x608060405267016345785d8a0000600b553480156200001d57600080fd5b506040518060400160405280600a81526020016914dbd8da585b0814195d60b21b8152506040518060400160405280600981526020016814dbd8da585b14195d60ba1b8152508160009081620000749190620001b3565b506001620000838282620001b3565b5050600780546001600160a01b0319163317905550604051620000a69062000100565b604051809103906000f080158015620000c3573d6000803e3d6000fd5b50600980546001600160a01b03929092166001600160a01b0319928316179055600c8054821633908117909155600d80549092161790556200027f565b6105fe80620029ea83390190565b634e487b7160e01b600052604160045260246000fd5b600181811c908216806200013957607f821691505b6020821081036200015a57634e487b7160e01b600052602260045260246000fd5b50919050565b601f821115620001ae57600081815260208120601f850160051c81016020861015620001895750805b601f850160051c820191505b81811015620001aa5782815560010162000195565b5050505b505050565b81516001600160401b03811115620001cf57620001cf6200010e565b620001e781620001e0845462000124565b8462000160565b602080601f8311600181146200021f5760008415620002065750858301515b600019600386901b1c1916600185901b178555620001aa565b600085815260208120601f198616915b8281101562000250578886015182559484019460019091019084016200022f565b50858210156200026f5787850151600019600388901b60f8161c191681555b5050505050600190811b01905550565b61275b806200028f6000396000f3fe6080604052600436106101665760003560e01c80636352211e116100d1578063a2e49b371161008a578063c87b56dd11610064578063c87b56dd1461044b578063d0def5211461046b578063e985e9c51461047e578063fce0f9281461049e57600080fd5b8063a2e49b37146103f6578063b88d4fde14610416578063bc9683261461043657600080fd5b80636352211e1461033657806370a08231146103565780638462151c146103765780638da5cb5b146103a357806395d89b41146103c1578063a22cb465146103d657600080fd5b806323b872dd1161012357806323b872dd146102605780633cf96af11461028057806342842e0e146102a05780634422352a146102c057806344a0d68a146102e0578063550840b11461030057600080fd5b806301ffc9a71461016b57806306fdde03146101a0578063081812fc146101c2578063095ea7b3146101fa57806313af40351461021c57806313faede61461023c575b600080fd5b34801561017757600080fd5b5061018b6101863660046115e5565b6104be565b60405190151581526020015b60405180910390f35b3480156101ac57600080fd5b506101b56104e9565b6040516101979190611652565b3480156101ce57600080fd5b506101e26101dd366004611665565b61057b565b6040516001600160a01b039091168152602001610197565b34801561020657600080fd5b5061021a610215366004611693565b6105a4565b005b34801561022857600080fd5b5061018b6102373660046116bf565b6105b3565b34801561024857600080fd5b50610252600b5481565b604051908152602001610197565b34801561026c57600080fd5b5061021a61027b3660046116dc565b6105f3565b34801561028c57600080fd5b50600d546101e2906001600160a01b031681565b3480156102ac57600080fd5b5061021a6102bb3660046116dc565b610683565b3480156102cc57600080fd5b50600c546101e2906001600160a01b031681565b3480156102ec57600080fd5b5061018b6102fb366004611665565b6106a3565b34801561030c57600080fd5b506101e261031b366004611665565b600e602052600090815260409020546001600160a01b031681565b34801561034257600080fd5b506101e2610351366004611665565b6106c6565b34801561036257600080fd5b506102526103713660046116bf565b6106d1565b34801561038257600080fd5b506103966103913660046116bf565b610719565b604051610197919061171d565b3480156103af57600080fd5b506007546001600160a01b03166101e2565b3480156103cd57600080fd5b506101b56107f1565b3480156103e257600080fd5b5061021a6103f1366004611761565b610800565b34801561040257600080fd5b5061018b6104113660046116bf565b61080b565b34801561042257600080fd5b5061021a61043136600461182b565b61084b565b34801561044257600080fd5b50610252610862565b34801561045757600080fd5b506101b5610466366004611665565b610872565b61021a6104793660046118ab565b610983565b34801561048a57600080fd5b5061018b61049936600461190f565b610ccd565b3480156104aa57600080fd5b5061018b6104b93660046116bf565b610cfb565b60006001600160e01b03198216632483248360e11b14806104e357506104e382610d3b565b92915050565b6060600080546104f89061193d565b80601f01602080910402602001604051908101604052809291908181526020018280546105249061193d565b80156105715780601f1061054657610100808354040283529160200191610571565b820191906000526020600020905b81548152906001019060200180831161055457829003601f168201915b5050505050905090565b600061058682610d8b565b506000828152600460205260409020546001600160a01b03166104e3565b6105af828233610dc4565b5050565b6007546000906001600160a01b031633146105cd57600080fd5b50600780546001600160a01b0319166001600160a01b0392909216919091179055600190565b6001600160a01b03821661062257604051633250574960e11b8152600060048201526024015b60405180910390fd5b600061062f838333610dd1565b9050836001600160a01b0316816001600160a01b03161461067d576040516364283d7b60e01b81526001600160a01b0380861660048301526024820184905282166044820152606401610619565b50505050565b61069e8383836040518060200160405280600081525061084b565b505050565b6007546000906001600160a01b031633146106bd57600080fd5b50600b55600190565b60006104e382610d8b565b60006001600160a01b0382166106fd576040516322718ad960e21b815260006004820152602401610619565b506001600160a01b031660009081526003602052604090205490565b6060600080610727846106d1565b905060008167ffffffffffffffff8111156107445761074461179f565b60405190808252806020026020018201604052801561076d578160200160208202803683370190505b509050600061077b60085490565b905060015b8181116107e657866001600160a01b031661079a826106c6565b6001600160a01b0316036107d457808386815181106107bb576107bb611977565b6020908102919091010152846107d0816119a3565b9550505b806107de816119a3565b915050610780565b509095945050505050565b6060600180546104f89061193d565b6105af338383610eca565b6007546000906001600160a01b0316331461082557600080fd5b50600c80546001600160a01b0319166001600160a01b0392909216919091179055600190565b6108568484846105f3565b61067d84848484610f69565b600061086d60085490565b905090565b606061087d82610d8b565b50600082815260066020526040812080546108979061193d565b80601f01602080910402602001604051908101604052809291908181526020018280546108c39061193d565b80156109105780601f106108e557610100808354040283529160200191610910565b820191906000526020600020905b8154815290600101906020018083116108f357829003601f168201915b50505050509050600061092e60408051602081019091526000815290565b90508051600003610940575092915050565b81511561097257808260405160200161095a9291906119bc565b60405160208183030381529060405292505050919050565b61097b84611092565b949350505050565b600b5434146109d45760405162461bcd60e51b815260206004820152601760248201527f496e73756666696369656e742046756e64732053656e740000000000000000006044820152606401610619565b6001600860008282546109e791906119eb565b90915550506040516109f8906115bf565b604051809103906000f080158015610a14573d6000803e3d6000fd5b50600a80546001600160a01b0319166001600160a01b03929092169190911790556000610a8460408051426020808301919091523360601b6bffffffffffffffffffffffff1916828401526001605480840191909152835180840390910181526074909201909252805191012090565b6040805160208101825260008152600954600a54600854935163da7323b360e01b815294955091936001600160a01b039182169363da7323b393610ad493169146913091899089906004016119fe565b6020604051808303816000875af1158015610af3573d6000803e3d6000fd5b505050506040513d601f19601f82011682018060405250810190610b179190611a47565b600880546000908152600e602052604080822080546001600160a01b0319166001600160a01b03958616179055600954600a5493549151632f4de29b60e11b8152938516600485015246602485015230604485015260648401919091526084830186905290921690635e9bc5369060a401602060405180830381865afa158015610ba5573d6000803e3d6000fd5b505050506040513d601f19601f82011682018060405250810190610bc99190611a47565b6008546000908152600e60205260409020549091506001600160a01b03808316911614610c2a5760405162461bcd60e51b815260206004820152600f60248201526e77726f6e672061646472657373657360881b6044820152606401610619565b610c3685600854611107565b610c4260085485611121565b600c54610c6e906001600160a01b03166005610c5f346001611a64565b610c699190611a7b565b611171565b600d54610c8b906001600160a01b03166005610c5f346004611a64565b7f7dc0bf3ff15656545da2c5f0567962839fe379f74aacdfc4e8025bb24e0c082d600854604051610cbe91815260200190565b60405180910390a15050505050565b6001600160a01b03918216600090815260056020908152604080832093909416825291909152205460ff1690565b6007546000906001600160a01b03163314610d1557600080fd5b50600d80546001600160a01b0319166001600160a01b0392909216919091179055600190565b60006001600160e01b031982166380ac58cd60e01b1480610d6c57506001600160e01b03198216635b5e139f60e01b145b806104e357506301ffc9a760e01b6001600160e01b03198316146104e3565b6000818152600260205260408120546001600160a01b0316806104e357604051637e27328960e01b815260048101849052602401610619565b61069e838383600161120b565b6000828152600260205260408120546001600160a01b0390811690831615610dfe57610dfe818486611311565b6001600160a01b03811615610e3c57610e1b60008560008061120b565b6001600160a01b038116600090815260036020526040902080546000190190555b6001600160a01b03851615610e6b576001600160a01b0385166000908152600360205260409020805460010190555b60008481526002602052604080822080546001600160a01b0319166001600160a01b0389811691821790925591518793918516917fddf252ad1be2c89b69c2b068fc378daa952ba7f163c4a11628f55a4df523b3ef91a4949350505050565b6001600160a01b038216610efc57604051630b61174360e31b81526001600160a01b0383166004820152602401610619565b6001600160a01b03838116600081815260056020908152604080832094871680845294825291829020805460ff191686151590811790915591519182527f17307eab39ab6107e8899845ad3d59bd9653f200f220920489ca2b5937696c31910160405180910390a3505050565b6001600160a01b0383163b1561067d57604051630a85bd0160e11b81526001600160a01b0384169063150b7a0290610fab903390889087908790600401611a9d565b6020604051808303816000875af1925050508015610fe6575060408051601f3d908101601f19168201909252610fe391810190611ada565b60015b61104f573d808015611014576040519150601f19603f3d011682016040523d82523d6000602084013e611019565b606091505b50805160000361104757604051633250574960e11b81526001600160a01b0385166004820152602401610619565b805181602001fd5b6001600160e01b03198116630a85bd0160e11b1461108b57604051633250574960e11b81526001600160a01b0385166004820152602401610619565b5050505050565b606061109d82610d8b565b5060006110b560408051602081019091526000815290565b905060008151116110d55760405180602001604052806000815250611100565b806110df84611375565b6040516020016110f09291906119bc565b6040516020818303038152906040525b9392505050565b6105af828260405180602001604052806000815250611408565b60008281526006602052604090206111398282611b45565b506040518281527ff8e1a15aba9398e019f0b49df1a4fde98ee17ae345cb5f6b5e2c27f5033e8ce79060200160405180910390a15050565b6000826001600160a01b03168260405160006040518083038185875af1925050503d80600081146111be576040519150601f19603f3d011682016040523d82523d6000602084013e6111c3565b606091505b505090508061069e5760405162461bcd60e51b81526020600482015260146024820152732330b4b632b2103a379039b2b7321022ba3432b960611b6044820152606401610619565b808061121f57506001600160a01b03821615155b156112e157600061122f84610d8b565b90506001600160a01b0383161580159061125b5750826001600160a01b0316816001600160a01b031614155b801561126e575061126c8184610ccd565b155b156112975760405163a9fbf51f60e01b81526001600160a01b0384166004820152602401610619565b81156112df5783856001600160a01b0316826001600160a01b03167f8c5be1e5ebec7d5bd14f71427d1e84f3dd0314c0f7b2291e5b200ac8c7c3b92560405160405180910390a45b505b5050600090815260046020526040902080546001600160a01b0319166001600160a01b0392909216919091179055565b61131c83838361141f565b61069e576001600160a01b03831661134a57604051637e27328960e01b815260048101829052602401610619565b60405163177e802f60e01b81526001600160a01b038316600482015260248101829052604401610619565b6060600061138283611482565b600101905060008167ffffffffffffffff8111156113a2576113a261179f565b6040519080825280601f01601f1916602001820160405280156113cc576020820181803683370190505b5090508181016020015b600019016f181899199a1a9b1b9c1cb0b131b232b360811b600a86061a8153600a85049450846113d657509392505050565b611412838361155a565b61069e6000848484610f69565b60006001600160a01b0383161580159061097b5750826001600160a01b0316846001600160a01b0316148061145957506114598484610ccd565b8061097b5750506000908152600460205260409020546001600160a01b03908116911614919050565b60008072184f03e93ff9f4daa797ed6e38ed64bf6a1f0160401b83106114c15772184f03e93ff9f4daa797ed6e38ed64bf6a1f0160401b830492506040015b6d04ee2d6d415b85acef810000000083106114ed576d04ee2d6d415b85acef8100000000830492506020015b662386f26fc10000831061150b57662386f26fc10000830492506010015b6305f5e1008310611523576305f5e100830492506008015b612710831061153757612710830492506004015b60648310611549576064830492506002015b600a83106104e35760010192915050565b6001600160a01b03821661158457604051633250574960e11b815260006004820152602401610619565b600061159283836000610dd1565b90506001600160a01b0381161561069e576040516339e3563760e11b815260006004820152602401610619565b610b2080611c0683390190565b6001600160e01b0319811681146115e257600080fd5b50565b6000602082840312156115f757600080fd5b8135611100816115cc565b60005b8381101561161d578181015183820152602001611605565b50506000910152565b6000815180845261163e816020860160208601611602565b601f01601f19169290920160200192915050565b6020815260006111006020830184611626565b60006020828403121561167757600080fd5b5035919050565b6001600160a01b03811681146115e257600080fd5b600080604083850312156116a657600080fd5b82356116b18161167e565b946020939093013593505050565b6000602082840312156116d157600080fd5b81356111008161167e565b6000806000606084860312156116f157600080fd5b83356116fc8161167e565b9250602084013561170c8161167e565b929592945050506040919091013590565b6020808252825182820181905260009190848201906040850190845b8181101561175557835183529284019291840191600101611739565b50909695505050505050565b6000806040838503121561177457600080fd5b823561177f8161167e565b91506020830135801515811461179457600080fd5b809150509250929050565b634e487b7160e01b600052604160045260246000fd5b600067ffffffffffffffff808411156117d0576117d061179f565b604051601f8501601f19908116603f011681019082821181831017156117f8576117f861179f565b8160405280935085815286868601111561181157600080fd5b858560208301376000602087830101525050509392505050565b6000806000806080858703121561184157600080fd5b843561184c8161167e565b9350602085013561185c8161167e565b925060408501359150606085013567ffffffffffffffff81111561187f57600080fd5b8501601f8101871361189057600080fd5b61189f878235602084016117b5565b91505092959194509250565b600080604083850312156118be57600080fd5b82356118c98161167e565b9150602083013567ffffffffffffffff8111156118e557600080fd5b8301601f810185136118f657600080fd5b611905858235602084016117b5565b9150509250929050565b6000806040838503121561192257600080fd5b823561192d8161167e565b915060208301356117948161167e565b600181811c9082168061195157607f821691505b60208210810361197157634e487b7160e01b600052602260045260246000fd5b50919050565b634e487b7160e01b600052603260045260246000fd5b634e487b7160e01b600052601160045260246000fd5b6000600182016119b5576119b561198d565b5060010190565b600083516119ce818460208801611602565b8351908301906119e2818360208801611602565b01949350505050565b808201808211156104e3576104e361198d565b600060018060a01b03808916835287602084015280871660408401525084606083015283608083015260c060a0830152611a3b60c0830184611626565b98975050505050505050565b600060208284031215611a5957600080fd5b81516111008161167e565b80820281158282048414176104e3576104e361198d565b600082611a9857634e487b7160e01b600052601260045260246000fd5b500490565b6001600160a01b0385811682528416602082015260408101839052608060608201819052600090611ad090830184611626565b9695505050505050565b600060208284031215611aec57600080fd5b8151611100816115cc565b601f82111561069e57600081815260208120601f850160051c81016020861015611b1e5750805b601f850160051c820191505b81811015611b3d57828155600101611b2a565b505050505050565b815167ffffffffffffffff811115611b5f57611b5f61179f565b611b7381611b6d845461193d565b84611af7565b602080601f831160018114611ba85760008415611b905750858301515b600019600386901b1c1916600185901b178555611b3d565b600085815260208120601f198616915b82811015611bd757888601518255948401946001909101908401611bb8565b5085821015611bf55787850151600019600388901b60f8161c191681555b5050505050600190811b0190555056fe608060405234801561001057600080fd5b50610b00806100206000396000f3fe6080604052600436106100595760003560e01c806301ffc9a7146100655780631626ba7e1461009a5780638da5cb5b146100d35780639e5d4c4914610100578063affed0e014610120578063fc0c546a1461014457600080fd5b3661006057005b600080fd5b34801561007157600080fd5b50610085610080366004610788565b61017c565b60405190151581526020015b60405180910390f35b3480156100a657600080fd5b506100ba6100b53660046107c8565b6101b3565b6040516001600160e01b03199091168152602001610091565b3480156100df57600080fd5b506100e86101ea565b6040516001600160a01b039091168152602001610091565b61011361010e36600461089b565b61030d565b6040516100919190610974565b34801561012c57600080fd5b5061013660005481565b604051908152602001610091565b34801561015057600080fd5b5061015961043c565b604080519384526001600160a01b03909216602084015290820152606001610091565b60006001600160e01b031982166301ffc9a760e01b14806101ad57506001600160e01b03198216630801407360e31b145b92915050565b6000806101c86101c16101ea565b8585610478565b905080156101e05750630b135d3f60e11b90506101ad565b5060009392505050565b600080600080306001600160a01b031663fc0c546a6040518163ffffffff1660e01b8152600401606060405180830381865afa15801561022e573d6000803e3d6000fd5b505050506040513d601f19601f820116820180604052508101906102529190610987565b92509250925046831461029c5760405162461bcd60e51b815260206004820152600d60248201526c15dc9bdb99c818da185a5b9251609a1b60448201526064015b60405180910390fd5b6040516331a9108f60e11b8152600481018290526001600160a01b03831690636352211e90602401602060405180830381865afa1580156102e1573d6000803e3d6000fd5b505050506040513d601f19601f8201168201806040525081019061030591906109c0565b935050505090565b60606103176101ea565b6001600160a01b0316336001600160a01b0316146103695760405162461bcd60e51b815260206004820152600f60248201526e2737ba103a37b5b2b71037bbb732b960891b6044820152606401610293565b6000808154610377906109f3565b9190508190555083856001600160a01b03167f47d99ad340f52da66535aff7e10da1ceb85a32bcbd9fa1c42314d194545e14d285856040516103ba929190610a0c565b60405180910390a36000856001600160a01b03168585856040516103df929190610a3b565b60006040518083038185875af1925050503d806000811461041c576040519150601f19603f3d011682016040523d82523d6000602084013e610421565b606091505b50925090508061043357815160208301fd5b50949350505050565b6000808030803b9061045990610453606084610a4b565b836104dc565b80602001905181019061046c9190610987565b93509350935050909192565b60008060006104878585610591565b50909250905060008160038111156104a1576104a1610a5e565b1480156104bf5750856001600160a01b0316826001600160a01b0316145b806104d057506104d08686866105de565b925050505b9392505050565b6060833b60008190036104ff5750506040805160208101909152600081526104d5565b8084111561051d5750506040805160208101909152600081526104d5565b8383101561054f5760405163162544fd60e11b8152600481018290526024810185905260448101849052606401610293565b83830384820360008282106105645782610566565b815b60408051603f8301601f19168101909152818152955090508087602087018a3c505050509392505050565b600080600083516041036105cb5760208401516040850151606086015160001a6105bd888285856106b9565b9550955095505050506105d7565b50508151600091506002905b9250925092565b6000806000856001600160a01b03168585604051602401610600929190610a74565b60408051601f198184030181529181526020820180516001600160e01b0316630b135d3f60e11b179052516106359190610a95565b600060405180830381855afa9150503d8060008114610670576040519150601f19603f3d011682016040523d82523d6000602084013e610675565b606091505b509150915081801561068957506020815110155b80156104d057508051630b135d3f60e11b906106ae9083016020908101908401610ab1565b149695505050505050565b600080807f7fffffffffffffffffffffffffffffff5d576e7357a4501ddfe92f46681b20a08411156106f4575060009150600390508261077e565b604080516000808252602082018084528a905260ff891692820192909252606081018790526080810186905260019060a0016020604051602081039080840390855afa158015610748573d6000803e3d6000fd5b5050604051601f1901519150506001600160a01b0381166107745750600092506001915082905061077e565b9250600091508190505b9450945094915050565b60006020828403121561079a57600080fd5b81356001600160e01b0319811681146104d557600080fd5b634e487b7160e01b600052604160045260246000fd5b600080604083850312156107db57600080fd5b82359150602083013567ffffffffffffffff808211156107fa57600080fd5b818501915085601f83011261080e57600080fd5b813581811115610820576108206107b2565b604051601f8201601f19908116603f01168101908382118183101715610848576108486107b2565b8160405282815288602084870101111561086157600080fd5b8260208601602083013760006020848301015280955050505050509250929050565b6001600160a01b038116811461089857600080fd5b50565b600080600080606085870312156108b157600080fd5b84356108bc81610883565b935060208501359250604085013567ffffffffffffffff808211156108e057600080fd5b818701915087601f8301126108f457600080fd5b81358181111561090357600080fd5b88602082850101111561091557600080fd5b95989497505060200194505050565b60005b8381101561093f578181015183820152602001610927565b50506000910152565b60008151808452610960816020860160208601610924565b601f01601f19169290920160200192915050565b6020815260006104d56020830184610948565b60008060006060848603121561099c57600080fd5b8351925060208401516109ae81610883565b80925050604084015190509250925092565b6000602082840312156109d257600080fd5b81516104d581610883565b634e487b7160e01b600052601160045260246000fd5b600060018201610a0557610a056109dd565b5060010190565b60208152816020820152818360408301376000818301604090810191909152601f909201601f19160101919050565b8183823760009101908152919050565b818103818111156101ad576101ad6109dd565b634e487b7160e01b600052602160045260246000fd5b828152604060208201526000610a8d6040830184610948565b949350505050565b60008251610aa7818460208701610924565b9190910192915050565b600060208284031215610ac357600080fd5b505191905056fea26469706673582212206c9e1506d794fd8ba19fb7f412cab98d5aaa2a016a8dc09993c826d54794e13b64736f6c63430008140033a2646970667358221220e2f7bfe167ba22af11ab82bc578ab08f426e10bab035d0f6ebdd9b53c6918b0264736f6c63430008140033608060405234801561001057600080fd5b506105de806100206000396000f3fe608060405234801561001057600080fd5b506004361061004c5760003560e01c80632585f6e51461005157806349273757146100a85780635e9bc536146100c8578063da7323b3146100f3575b600080fd5b61006a61005f3660046103d3565b939492939192909190565b604080516001600160a01b039687168152602081019590955292909416918301919091526060820152608081019190915260a0015b60405180910390f35b6100bb6100b63660046103d3565b610106565b60405161009f9190610445565b6100db6100d63660046103d3565b610122565b6040516001600160a01b03909116815260200161009f565b6100db610101366004610478565b610146565b60606000610117878787878761028c565b979650505050505050565b600080610132878787878761028c565b8051602090910120905061011783826102f5565b600080610156898989898961028c565b9050600061016e8660001b83805190602001206102f5565b90506001600160a01b0381163b156101895791506101179050565b604080516001600160a01b0383811682528c811660208301528183018c90528a1660608201526080810189905260a0810188905290517f07fba7bba1191da7ee1155dcfa0030701c9c9a9cc34a93b991fc6fd0c9268d8f9181900360c00190a16101f560008784610309565b9050831561027f576000816001600160a01b03168686604051610219929190610529565b6000604051808303816000865af19150503d8060008114610256576040519150601f19603f3d011682016040523d82523d6000602084013e61025b565b606091505b505090508061027d57604051630337323560e31b815260040160405180910390fd5b505b9998505050505050505050565b60408051602081018390529081018590526001600160a01b0384166060828101919091526080820184905290869060a00160408051601f19818403018152908290526102db9291602001610539565b604051602081830303815290604052905095945050505050565b600061030283833061038d565b9392505050565b6000834710156103395760405163392efb2b60e21b81524760048201526024810185905260440160405180910390fd5b815160000361035b57604051631328927760e21b815260040160405180910390fd5b8282516020840186f590506001600160a01b03811661030257604051633a0ba96160e11b815260040160405180910390fd5b6000604051836040820152846020820152828152600b8101905060ff815360559020949350505050565b80356001600160a01b03811681146103ce57600080fd5b919050565b600080600080600060a086880312156103eb57600080fd5b6103f4866103b7565b945060208601359350610409604087016103b7565b94979396509394606081013594506080013592915050565b60005b8381101561043c578181015183820152602001610424565b50506000910152565b6020815260008251806020840152610464816040850160208701610421565b601f01601f19169190910160400192915050565b600080600080600080600060c0888a03121561049357600080fd5b61049c886103b7565b9650602088013595506104b1604089016103b7565b9450606088013593506080880135925060a088013567ffffffffffffffff808211156104dc57600080fd5b818a0191508a601f8301126104f057600080fd5b8135818111156104ff57600080fd5b8b602082850101111561051157600080fd5b60208301945080935050505092959891949750929550565b8183823760009101908152919050565b733d60ad80600a3d3981f3363d3d373d3d3d363d7360601b8152606083901b6bffffffffffffffffffffffff191660148201526e5af43d82803e903d91602b57fd5bf360881b6028820152815160009061059a816037850160208701610421565b91909101603701939250505056fea264697066735822122081907f096d1fefa2fc87bc90a5c3236b098da30bce4a62221b5aabb065ac0f9a64736f6c63430008140033",
  "linkReferences": {},
  "deployedLinkReferences": {}
}